{
  "_format": "hh-sol-artifact-1",
  "contractName": "CloudFHE",
  "sourceName": "contracts/CloudFHE.sol",
  "abi": [
    {
      "inputs": [
        {
          "internalType": "address",
          "name": "_decryptionOracle",
          "type": "address"
        }
      ],
      "stateMutability": "nonpayable",
      "type": "constructor"
    },
    {
      "inputs": [],
      "name": "HandlesAlreadySavedForRequestID",
      "type": "error"
    },
    {
      "anonymous": false,
      "inputs": [
        {
          "indexed": true,
          "internalType": "uint256",
          "name": "id",
          "type": "uint256"
        },
        {
          "indexed": false,
          "internalType": "bytes32[]",
          "name": "handles",
          "type": "bytes32[]"
        },
        {
          "indexed": false,
          "internalType": "bytes4",
          "name": "callback",
          "type": "bytes4"
        }
      ],
      "name": "DecryptionRequested",
      "type": "event"
    },
    {
      "anonymous": false,
      "inputs": [
        {
          "indexed": true,
          "internalType": "uint256",
          "name": "id",
          "type": "uint256"
        },
        {
          "indexed": true,
          "internalType": "address",
          "name": "owner",
          "type": "address"
        },
        {
          "indexed": false,
          "internalType": "bytes32",
          "name": "fileHash",
          "type": "bytes32"
        },
        {
          "indexed": false,
          "internalType": "bytes32",
          "name": "sizeHandle",
          "type": "bytes32"
        }
      ],
      "name": "FileUploaded",
      "type": "event"
    },
    {
      "inputs": [
        {
          "internalType": "uint256",
          "name": "requestID",
          "type": "uint256"
        },
        {
          "internalType": "uint32[]",
          "name": "",
          "type": "uint32[]"
        }
      ],
      "name": "__handleDecryption",
      "outputs": [],
      "stateMutability": "nonpayable",
      "type": "function"
    },
    {
      "inputs": [],
      "name": "decryptionOracle",
      "outputs": [
        {
          "internalType": "address",
          "name": "",
          "type": "address"
        }
      ],
      "stateMutability": "view",
      "type": "function"
    },
    {
      "inputs": [
        {
          "internalType": "uint256",
          "name": "",
          "type": "uint256"
        }
      ],
      "name": "files",
      "outputs": [
        {
          "internalType": "address",
          "name": "owner",
          "type": "address"
        },
        {
          "internalType": "bytes32",
          "name": "fileHash",
          "type": "bytes32"
        },
        {
          "internalType": "euint32",
          "name": "sizeHandle",
          "type": "bytes32"
        },
        {
          "internalType": "bool",
          "name": "exists",
          "type": "bool"
        }
      ],
      "stateMutability": "view",
      "type": "function"
    },
    {
      "inputs": [
        {
          "internalType": "uint256",
          "name": "id",
          "type": "uint256"
        },
        {
          "internalType": "euint32",
          "name": "delta",
          "type": "bytes32"
        }
      ],
      "name": "incrementSize",
      "outputs": [],
      "stateMutability": "nonpayable",
      "type": "function"
    },
    {
      "inputs": [],
      "name": "nextId",
      "outputs": [
        {
          "internalType": "uint256",
          "name": "",
          "type": "uint256"
        }
      ],
      "stateMutability": "view",
      "type": "function"
    },
    {
      "inputs": [
        {
          "internalType": "uint256",
          "name": "id",
          "type": "uint256"
        },
        {
          "internalType": "string",
          "name": "",
          "type": "string"
        }
      ],
      "name": "requestHomomorphicComputation",
      "outputs": [],
      "stateMutability": "nonpayable",
      "type": "function"
    },
    {
      "inputs": [
        {
          "internalType": "uint256",
          "name": "id",
          "type": "uint256"
        }
      ],
      "name": "requestPublicDecryption",
      "outputs": [],
      "stateMutability": "nonpayable",
      "type": "function"
    },
    {
      "inputs": [
        {
          "internalType": "address",
          "name": "_oracle",
          "type": "address"
        }
      ],
      "name": "setDecryptionOracle",
      "outputs": [],
      "stateMutability": "nonpayable",
      "type": "function"
    },
    {
      "inputs": [
        {
          "internalType": "bytes32",
          "name": "ipfsHash",
          "type": "bytes32"
        },
        {
          "internalType": "externalEuint32",
          "name": "externalSize",
          "type": "bytes32"
        },
        {
          "internalType": "bytes",
          "name": "attestation",
          "type": "bytes"
        }
      ],
      "name": "uploadFromExternal",
      "outputs": [
        {
          "internalType": "uint256",
          "name": "",
          "type": "uint256"
        }
      ],
      "stateMutability": "nonpayable",
      "type": "function"
    }
  ],
  "bytecode": "0x608060405234801561001057600080fd5b5060405161130e38038061130e83398101604081905261002f91610054565b600280546001600160a01b0319166001600160a01b0392909216919091179055610084565b60006020828403121561006657600080fd5b81516001600160a01b038116811461007d57600080fd5b9392505050565b61127b806100936000396000f3fe608060405234801561001057600080fd5b50600436106100935760003560e01c806397022c801161006657806397022c801461010c578063b3fa6dec1461011f578063e489631d1461014a578063e6e5ccd41461015d578063f4c714b41461017057600080fd5b80632c064b3e1461009857806342b7078e146100ad57806361b8ce8c146100dd57806378407f50146100f9575b600080fd5b6100ab6100a6366004610de4565b6101de565b005b6100ab6100bb366004610e83565b600280546001600160a01b0319166001600160a01b0392909216919091179055565b6100e660015481565b6040519081526020015b60405180910390f35b6100ab610107366004610eac565b6102bd565b6100ab61011a366004610ece565b61041a565b600254610132906001600160a01b031681565b6040516001600160a01b0390911681526020016100f0565b6100ab610158366004610ee7565b610532565b6100e661016b366004610faf565b6105dc565b6101b261017e366004610ece565b60006020819052908152604090208054600182015460028301546003909301546001600160a01b0390921692909160ff1684565b604080516001600160a01b039095168552602085019390935291830152151560608201526080016100f0565b60008281526020819052604090206003015460ff166102185760405162461bcd60e51b815260040161020f9061102f565b60405180910390fd5b6000828152602081905260409020546001600160a01b0316331461026b5760405162461bcd60e51b815260206004820152600a60248201526937b7363c9037bbb732b960b11b604482015260640161020f565b6040805160008152602081019182905283917f2f66d16424d59e57e01fc54834cc76211f0e73db66b1f610e4945f5ced534a09916102b191631603259f60e11b90611093565b60405180910390a25050565b60008281526020819052604090206003015460ff166102ee5760405162461bcd60e51b815260040161020f9061102f565b6000828152602081905260409020546001600160a01b031633146103415760405162461bcd60e51b815260206004820152600a60248201526937b7363c9037bbb732b960b11b604482015260640161020f565b60008281526020819052604090206002015461035c9061076e565b6103b35760405162461bcd60e51b815260206004820152602260248201527f63616c6c6572206e6f7420616c6c6f77656420666f722066696c652068616e646044820152616c6560f01b606482015260840161020f565b6000828152602081905260408120600201546103cf9083610780565b6000848152602081905260409020549091506103f59082906001600160a01b03166107b9565b5061040081306107b9565b506000928352602083905260409092206002019190915550565b60008181526020819052604090206003015460ff1661044b5760405162461bcd60e51b815260040161020f9061102f565b6002546001600160a01b03166104945760405162461bcd60e51b815260206004820152600e60248201526d1bdc9858db19481b9bdd081cd95d60921b604482015260640161020f565b6040805160018082528183019092526000916020808301908036833701905050600083815260208190526040902060020154909150816000815181106104dc576104dc6110be565b60209081029190910101526104f88163e489631d60e01b6107cc565b50817f2f66d16424d59e57e01fc54834cc76211f0e73db66b1f610e4945f5ced534a098263e489631d60e01b6040516102b1929190611093565b6002546001600160a01b031633148061055457506002546001600160a01b0316155b6105965760405162461bcd60e51b8152602060048201526013602482015272756e617574686f72697a6564206f7261636c6560681b604482015260640161020f565b6040805160008152602081019182905283917f2f66d16424d59e57e01fc54834cc76211f0e73db66b1f610e4945f5ced534a09916102b19163e489631d60e01b90611093565b60008061061f8585858080601f0160208091040260200160405190810160405280939291908181526020018383808284376000920191909152506107da92505050565b905061062a8161076e565b6106855760405162461bcd60e51b815260206004820152602660248201527f63616c6c6572206e6f7420616c6c6f77656420666f722070726f76696465642060448201526568616e646c6560d01b606482015260840161020f565b6001805460009182610696836110d4565b90915550604080516080810182523380825260208083018c815283850188815260016060860181815260008981529485905296909320945185546001600160a01b0319166001600160a01b0390911617855590519184019190915551600283015591516003909101805460ff191691151591909117905590915061071b9083906107b9565b5061072682306107b9565b5033817fea9d74e34d6dde4eafa59c60b1b00e4b5c6015ac6580ad9d8b723294cb699ff389856040805192835260208301919091520160405180910390a39695505050505050565b600061077a82336107e8565b92915050565b600082610794576107916000610878565b92505b816107a6576107a36000610878565b91505b6107b28383600061088b565b9392505050565b60006107c58383610947565b5090919050565b60006107b2838360006109c4565b60006107b283836004610aea565b60008060008051602061122683398151915280546040516382027b6d60e01b8152600481018790526001600160a01b0386811660248301529293509116906382027b6d90604401602060405180830381865afa15801561084c573d6000803e3d6000fd5b505050506040513d601f19601f8201168201806040525081019061087091906110fb565b949350505050565b600061077a8263ffffffff166004610c01565b600080821561089f5750600160f81b6108a3565b5060005b6000600080516020611226833981519152600181015460405163022f65e760e31b815260048101899052602481018890526001600160f81b0319851660448201529192506001600160a01b03169063117b2f38906064016020604051808303816000875af1158015610919573d6000803e3d6000fd5b505050506040513d601f19601f8201168201806040525081019061093d919061111d565b9695505050505050565b60006000805160206112268339815191528054604051635ca4b5b160e11b8152600481018690526001600160a01b03858116602483015292935091169063b9496b6290604401600060405180830381600087803b1580156109a757600080fd5b505af11580156109bb573d6000803e3d6000fd5b50505050505050565b7f878245876662ba28a480c5ea71726db859fb50222b0a3d7cbbc21cfa336faf0080546000805160206112268339815191528054604051637d6e912360e11b81529293926001600160a01b039091169063fadd224690610a28908990600401611136565b600060405180830381600087803b158015610a4257600080fd5b505af1158015610a56573d6000803e3d6000fd5b5050506002820154604051633263b83b60e01b81526001600160a01b039091169150633263b83b908690610a929087908b908b90600401611149565b6000604051808303818588803b158015610aab57600080fd5b505af1158015610abf573d6000803e3d6000fd5b5050505050610ace8387610ca8565b8154826000610adc836110d4565b919050555050509392505050565b7f9e7b61f58c47dc699ac88507c4f5bb9f121c03808c5676a8078fe583e46497015460405163196d0b9b60e01b8152600091600080516020611226833981519152916001600160a01b039091169063196d0b9b90610b5290889033908990899060040161119d565b6020604051808303816000875af1158015610b71573d6000803e3d6000fd5b505050506040513d601f19601f82011682018060405250810190610b95919061111d565b8154604051630f8e573b60e21b8152600481018390523360248201529193506001600160a01b031690633e395cec90604401600060405180830381600087803b158015610be157600080fd5b505af1158015610bf5573d6000803e3d6000fd5b50505050509392505050565b7f9e7b61f58c47dc699ac88507c4f5bb9f121c03808c5676a8078fe583e464970154604051639cd07acb60e01b8152600091600080516020611226833981519152916001600160a01b0390911690639cd07acb90610c659087908790600401611211565b6020604051808303816000875af1158015610c84573d6000803e3d6000fd5b505050506040513d601f19601f82011682018060405250810190610870919061111d565b60008281527f878245876662ba28a480c5ea71726db859fb50222b0a3d7cbbc21cfa336faf0160205260409020547f878245876662ba28a480c5ea71726db859fb50222b0a3d7cbbc21cfa336faf009015610d1657604051633f06d22b60e01b815260040160405180910390fd5b600083815260018201602090815260409091208351610d3792850190610d3d565b50505050565b828054828255906000526020600020908101928215610d78579160200282015b82811115610d78578251825591602001919060010190610d5d565b50610d84929150610d88565b5090565b5b80821115610d845760008155600101610d89565b634e487b7160e01b600052604160045260246000fd5b604051601f8201601f1916810167ffffffffffffffff81118282101715610ddc57610ddc610d9d565b604052919050565b60008060408385031215610df757600080fd5b8235915060208084013567ffffffffffffffff80821115610e1757600080fd5b818601915086601f830112610e2b57600080fd5b813581811115610e3d57610e3d610d9d565b610e4f601f8201601f19168501610db3565b91508082528784828501011115610e6557600080fd5b80848401858401376000848284010152508093505050509250929050565b600060208284031215610e9557600080fd5b81356001600160a01b03811681146107b257600080fd5b60008060408385031215610ebf57600080fd5b50508035926020909101359150565b600060208284031215610ee057600080fd5b5035919050565b60008060408385031215610efa57600080fd5b8235915060208084013567ffffffffffffffff80821115610f1a57600080fd5b818601915086601f830112610f2e57600080fd5b813581811115610f4057610f40610d9d565b8060051b9150610f51848301610db3565b8181529183018401918481019089841115610f6b57600080fd5b938501935b83851015610f9f578435925063ffffffff83168314610f8f5760008081fd5b8282529385019390850190610f70565b8096505050505050509250929050565b60008060008060608587031215610fc557600080fd5b8435935060208501359250604085013567ffffffffffffffff80821115610feb57600080fd5b818701915087601f830112610fff57600080fd5b81358181111561100e57600080fd5b88602082850101111561102057600080fd5b95989497505060200194505050565b6020808252600e908201526d199a5b19481b9bdd08199bdd5b9960921b604082015260600190565b60008151808452602080850194506020840160005b838110156110885781518752958201959082019060010161106c565b509495945050505050565b6040815260006110a66040830185611057565b905063ffffffff60e01b831660208301529392505050565b634e487b7160e01b600052603260045260246000fd5b6000600182016110f457634e487b7160e01b600052601160045260246000fd5b5060010190565b60006020828403121561110d57600080fd5b815180151581146107b257600080fd5b60006020828403121561112f57600080fd5b5051919050565b6020815260006107b26020830184611057565b8381526060602082015260006111626060830185611057565b905063ffffffff60e01b83166040830152949350505050565b6054811061119957634e487b7160e01b600052602160045260246000fd5b9052565b8481526000602060018060a01b038616602084015260806040840152845180608085015260005b818110156111e05786810183015185820160a0015282016111c4565b50600060a0828601015260a0601f19601f83011685010192505050611208606083018461117b565b95945050505050565b828152604081016107b2602083018461117b56fe9e7b61f58c47dc699ac88507c4f5bb9f121c03808c5676a8078fe583e4649700a26469706673582212204443d418afe0da9ddbcf5d8cab2f66f3cac49d2de2e701a1b41b1286e79ccd9964736f6c63430008180033",
  "linkReferences": {},
  "deployedLinkReferences": {}
}